:100000000C942A000C9447000C9447000C94470071
:100010000C9447000C9447000C9447000C94470044
:100020000C9447000C9447000C9447000C94470034
:100030000C94AB000C9447000C9447000C944700C0
:100040000C9447000C9447000C9447000C94470014
:100050000C94470011241FBECFE5D8E0DEBFCDBF12
:1000600010E0A0E6B0E0E6E5F2E002C005900D92F7
:10007000AE36B107D9F720E0AEE6B0E001C01D9280
:10008000A037B207E1F70E9449000C9429010C94B3
:1000900000000E94D2008BE690E00E941D018FEFCD
:1000A00084BB15BA84BB15BA80EB87BB0E946A007B
:1000B0008AEA0E94A60080E285BBCAEACF5F8C2F45
:1000C0000E94A6008823D1F38BE690E00E941D01D8
:1000D000C5BBF4CF80916600813011F46D9A03C0E6
:1000E000811101C06D9880916000813011F46C9A8B
:1000F00003C0811101C06C9880916400811102C01D
:100100006B9A03C0813009F46B988091650081304F
:1001100011F46A9A03C0811101C06A989DB1E0E6AA
:10012000F0E08181892B8DB98381813011F4709A3F
:1001300003C0811101C0709880916200813011F478
:100140006E9A0895811101C06E9808958FB9779BBA
:10015000FECF81E008951F920F920FB60F921124E7
:100160002F933F934F935F936F937F938F939F93BF
:10017000AF93BF93EF93FF93E0916E00F0916F0008
:100180000995FF91EF91BF91AF919F918F917F91D1
:100190006F915F914F913F912F910F900FBE0F90F4
:1001A0001F90189587E689B9E7E6F0E021819BB1B9
:1001B000892F8E7F8BB99BB1822B892B8BB92281A2
:1001C0009AB1892F877F8AB99AB1822B892B8AB9F4
:1001D00023819AB1892F8F7E8AB99AB1822B892B7C
:1001E0008AB980B5806880BD8481843021F4529AB8
:1001F00080B5836080BD90B5E7E6F0E08481892B0F
:1002000080BD268190B5892F877F80BD90B5822BD8
:10021000892B80BD258190B5892F8F7C80BD90B5BD
:10022000822B892B80BD208190B5892F8F7B80BD4B
:1002300090B5822B892B80BD08955D9BFECF2091C8
:100240006B00243021F42AB19170922B9AB98CB9A9
:060250000895F894FFCFB1
:0E025600010001000100010000081003020079
:00000001FF
